:020000040800F2
:1000000000000820996900087114000873140008A2
:100010007514000877140008791400080000000027
:100020000000000000000000000000007B14000839
:100030007D140008000000007F14000881140008EF
:10004000E9690008E9690008E9690008E969000848
:10005000E9690008E9690008E9690008E969000838
:10006000E9690008E9690008E9690008E969000828
:10007000E9690008E9690008E9690008E969000818
:10008000E9690008E9690008E9690008E969000808
:10009000E9690008E9690008E9690008E9690008F8
:1000A000E9690008911400089D140008E969000836
:1000B000E9690008A9140008E9690008E96900086D
:1000C000E9690008E9690008E9690008E9690008C8
:1000D000E9690008B5140008C1140008CD1400082F
:1000E000E9690008E9690008E9690008E9690008A8
:1000F000E9690008E9690008E9690008E969000898
:10010000E9690008D9140008E5140008E969000845
:10011000E9690008E9690008E9690008F1140008C4
:10012000E9690008E9690008E9690008FD140008A8
:10013000E9690008E9690008E9690008E969000857
:10014000E9690008E9690008E9690008E969000847
:10015000E9690008E9690008E9690008E969000837
:10016000E9690008E9690008E9690008E969000827
:10017000E9690008E9690008E96900080000000071
:10018000E9690008E9690008E9690008E969000807
:10019000E9690008E9690008E9690008E9690008F7
:1001A00009150008E969000815150008E969000843
:1001B000E9690008E9690008E9690008E9690008D7
:1001C000E9690008E969000800000000E969000821
:1001D000E9690008E9690008E9690008E9690008B7
:1001E000E9690008E9690008E9690008E9690008A7
:0801F000E9690008E969000853
:1001F80010B5054C237833B9044B13B10448AFF359
:1002080000800123237010BD8C0000200000000036
:100218001826010808B5034B1BB103490348AFF37F
:10022800008008BD0000000090000020182601088A
:1002380053B94AB9002908BF00281CBF4FF0FF3145
:100248004FF0FF3000F07AB9ADF1080C6DE904CE3B
:1002580000F006F8DDF804E0DDE9022304B0704799
:100268002DE9F0478C460D460446089E002B51D1D7
:100278008A4217466DD9B2FA82FEBEF1000F0BD042
:10028800CEF1200C01FA0EF520FA0CFC02FA0EF75A
:100298004CEA050C00FA0EF44FEA174A250CBCFB91
:1002A800FAF81FFA87F90AFB18CC45EA0C4508FB4F
:1002B80009F3AB420AD9ED1908F1FF3280F0238126
:1002C800AB4240F22081A8F102083D44ED1AA4B2E5
:1002D800B5FBFAF00AFB105544EA054400FB09F99E
:1002E800A14509D9E41900F1FF3380F00A81A1453D
:1002F80040F2078102383C44A4EB090440EA084074
:100308000021002E61D024FA0EF4002334607360BB
:10031800BDE8F0878B4207D9002E54D0002186E82B
:1003280021000846BDE8F087B3FA83F1002940F0C0
:100338008E80AB4202D3824200F2FA80841A65EBC7
:1003480003050120AC46002E3FD086E81010BDE81A
:10035800F08712B90127B7FBF2F7B7FA87FEBEF1AB
:10036800000F34D1EB1B3A0C1FFA87FC0121B3FBB9
:10037800F2F8250C02FB183345EA03450CFB08F399
:10038800AB4207D9ED1908F1FF3002D2AB4200F2B7
:10039800D1808046ED1AA3B2B5FBF2F002FB1055EE
:1003A80043EA05440CFB00FCA44507D9E41900F115
:1003B800FF3302D2A44500F2B8801846A4EB0C041F
:1003C80040EA08409DE731463046BDE8F087CEF167
:1003D800200405FA0EF307FA0EF720FA04F83A0C8F
:1003E80025FA04F448EA0308B4FBF2F14FEA184589
:1003F80002FB11441FFA87FC45EA044501FB0CF394
:10040800AB4200FA0EF409D9ED1901F1FF3080F082
:100418008A80AB4240F2878002393D44EB1A1FFACA
:1004280088F5B3FBF2F002FB103345EA034500FB05
:100438000CF3AB4207D9ED1900F1FF386FD2AB428C
:100448006DD902383D44EB1A40EA01418FE7C1F10A
:10045800200722FA07F88B4005FA01F448EA03035B
:1004680020FA07FE4FEA134CFD404EEA040EB5FB96
:10047800FCF94FEA1E440CFB19551FFA83F844EAAD
:10048800054509FB08F4AC4202FA01F200FA01FA48
:1004980008D9ED1809F1FF3043D2AC4241D9A9F18E
:1004A80002091D442D1B1FFA8EFEB5FBFCF00CFB48
:1004B80010554EEA054400FB08F8A04507D9E41892
:1004C80000F1FF3529D2A04527D902381C4440EA5B
:1004D8000940A4EB0804A0FB02894C45C6464D46DA
:1004E80015D312D056B1BAEB0E0364EB050404FA27
:1004F80007F7CB401F43CC40376074600021BDE84C
:10050800F0871846F8E69046E0E6C245EAD2B8EB2E
:10051800020E69EB03050138E4E72846D7E74046B1
:1005280091E78146BEE7014678E702383C4445E753
:10053800084608E7A8F102083D442BE7704700BFCA
:1005480070B5B8B034220021022507A8012612F0A0
:1005580056F81422002102A812F051F80021902226
:1005680014A812F04CF8002402F0D4F92A4B07A87A
:100578001A6C42F080521A641B6C03F0805300938B
:10058800009B264B1A6842F440421A601B680C967E
:1005980003F440430D9511950193019B092307939B
:1005A8004FF4803308934FF480030E9319230F936D
:1005B8004FF4C87310930823129302F0EBF902F07A
:1005C800B1F90F23062102A802934FF4A053039513
:1005D80005934FF480530494069302F09DFB104B4F
:1005E80014A81A951493C0231C96199304231E96D5
:1005F8001B934FF4003325941F934FF400732694F4
:1006080020934FF0006327942D942E9433933494C1
:1006180002F040FC38B070BD003802400070004065
:10062800E8C1A0002DE980489BB0B34D00F0BEFFA3
:100638000024FFF785FF1422002113A811F0DFFF23
:100648002B6B00224FF4A57143F01003AB480C2725
:1006580001262B634FF010092B6B4FF0040BDFF8CA
:10066800E48203F01003DFF8E0A20393039B2B6BF3
:1006780043F480732B632B6B03F480730493049B04
:100688002B6B43F004032B632B6B03F004030593DC
:10069800059B2B6B43F020032B632B6B03F020038C
:1006A8000693069B2B6B43F080032B632B6B03F0A5
:1006B80080030793079B2B6B43F001032B632B6B82
:1006C80003F001030893089B2B6B43F002032B6391
:1006D8002B6B03F002030993099B2B6B43F0400338
:1006E8002B632B6B03F040030A930A9B2B6B43F09D
:1006F80008032B632B6B03F008030B930B9B01F090
:10070800ABFD00224FF401517D4801F0A5FD002208
:100718004FF440717B4801F09FFD00224FF44B518C
:10072800794801F099FD002241F29001774801F0E3
:1007380093FD002246F60C01754801F08DFD13A9C2
:10074800744813971494159401F0FCFB4FF4A573A7
:1007580013A96A48139314961594169401F0F2FBA2
:100768004FF4015313A966481393149615941694DD
:1007780001F0E8FB402313A96248139314941594DD
:1007880001F0E0FB4FF4407313A95E4813931496ED
:100798001594169401F0D6FB41F6032313A95E487D
:1007A80013931494159401F0CDFBA02313A9544876
:1007B80013931494159401F0C5FB4FF44B5313A9EC
:1007C8005148139314961594169401F0BBFB41F20B
:1007D800900313A94D48139314961594169401F099
:1007E800B1FB4FF4005313A9484813934B4B15948E
:1007F800149301F0A7FB46F60C0313A9444813937E
:1008080014961594169401F09DFB13A94448CDF84D
:100818004C901494159401F095FB4248424B047196
:100828000360447144618461066201F0B7F83F4B8C
:100838004046C8F80840C8F80C60C8F81040C8F826
:100848001440C8F81840C8F81C40C8F8204088E888
:10085800080401F006FD2146404601F053FD2146FB
:100868004046DFF8E88001F073FD314B4046C8F898
:100878000840C8F80C60C8F81040C8F81440C8F818
:100888001840C8F81C40C8F8204088E8080401F05F
:10089800E8FC214640464FF0070A01F033FD2146A7
:1008A80040464FF0080801F053FD224B224A2348E6
:1008B8009C60DC601C615C61C3F818B0C0F82CA0B7
:1008C800C0F83480846004614461C0F81C900462FC
:1008D80044628462046383E81400194B4FF4827203
:1008E80003604FF470634260C3604FF4802300924A
:1008F800836103F01CFD2BE0003802400020024019
:100908000008024000140240001C0240000C024093
:1009180000180240001002400000024000001110C0
:1009280000040240C4440620003002400054004045
:100938000058004034450620002C0140D4470620CA
:100948000030014028440620FFEAC000E8440620A1
:10095800B0484FF48023B049009A01604FF4E06139
:1009680042600192C16000918361C0F82CA0C0F878
:100978003480846004614461C461046244628462B6
:10098800046303F0D4FCA548019AA54B00990360C1
:100998004FF4802342604FF40042C160826083615B
:1009A800C0F82CA04FF47A7AC0F8348049F6404851
:1009B80004614461C461046244628462046303F0B4
:1009C800B6FC98484FF4E133974A47618460C460A5
:1009D80004618461C4610462446280E80C0004F02C
:1009E80045FB924892494FF4164347618460C460BE
:1009F80004618461C4610462446280E80A0004F00E
:100A080035FB4FF4165E8B488B4B47618460C4609E
:100A180004618461C46104624462884F80E80840CC
:100A280004F024FB04F028FF4A46214613A811F0DD
:100A3800E6FD4FF4803C824B3846BC603C61BC61AB
:100A480087F82040FC62FC60FE6187F830407E61D8
:100A580087E808107B4BBB6200F0D8FD022313A97E
:100A6800384614961393159400F076FE7648774B23
:100A780084600461764F80E808014FF0800840F2F6
:100A8800F313C0F81880C36003F0A6FE4A46214657
:100A98000FA811F0B4FD1C22214613A80C940D9444
:100AA8000E9411F0ACFD6B4B3846BC603C61C7F846
:100AB800188087E8080463234FF4FA6AFB60009300
:100AC80003F08AFE4FF480530FA938460F9303F0C2
:100AD8007FFF384603F09AFE0CA938460C940E9412
:100AE80004F00AF860235A4613A93846139364237E
:100AF80015941493179403F0DBFE39683846564F63
:100B08008A6922F400621204120C8A6100F0D4FB94
:100B180021461C2213A811F072FD504A009B38464A
:100B2800BC60FB603C61C7F8188087E8040403F0E8
:100B380053FE384603F06AFE602313A92246139336
:100B48006423384615941493179403F0B1FE3A6859
:100B58003846434F936923F008031B041B0C936129
:100B680000F0AAFB21464A4613A811F048FD3D4A69
:100B780003233846BC60FB603C61C7F818800F94BB
:100B88001094119487E8040403F026FE4FF4805370
:100B980013A93846139303F01BFF0FA93846324FA9
:100BA8000F94119403F0A8FF44F620632F4A3846A7
:100BB800BC60C7F80CB0C7F8188013941494159447
:100BC80087E80C0003F008FE13A93846139415941F
:100BD80003F092FF2146182213A8254F11F00FFDAC
:100BE800244A38460F9487E814007F22BA60FF220F
:100BF800FA6002F047FC302213A938468DF84C9071
:100C08008DF84D2032468DF84E401794189402F016
:100C180086FC31E0E44206200038004038460620D1
:100C2800003C0040E44606200010014038480620F9
:100C380000440040A8430620004800409C46062087
:100C4800002001400100000F7444062000440140C8
:100C5800F84506200004004064470620004801408B
:100C6800B8450620000C0040B84806200014004093
:100C7800A44706200028004032460FA938468DF8C0
:100C88003C608DF83D608DF83E608DF83F4002F085
:100C9800B4FC22462146384602F00EFD2B6B2D4847
:100CA80043F480032B632B6B446103F4800384615A
:100CB800C4611393139B284B0462C0F824B0C46228
:100CC800046380E818014FF40073C3604FF4806335
:100CD80003610323836200F0D3FE214622463B20B2
:100CE80000F0ECFD3B2000F021FE1C4B1C4803608B
:100CF80002F07EFB04F0C8FE1A481B4A0323C0F822
:100D08000CA0C0F808A080E80C0001F046FB2B6B93
:100D18002246414643F4805314482B632B6B03F45B
:100D280080530F930F9B01F097FA4FF4FA7000F07D
:100D38005BFC324641460D4801F08EFA32464021AE
:100D48000B4801F089FA05F013FE05F01EFE04F0C9
:100D5800EBFEFEE7484306201064024000080650F8
:100D6800C4470620B444062000300040000C02406E
:100D780000200240704700000A4B82B01A6C42F013
:100D880080521A641A6C02F080520092009A5A6CCF
:100D980042F480425A645B6C03F480430193019BE4
:100DA80002B070470038024010B588B004461422DB
:100DB800002103A811F023FC2268104B9A421BD192
:100DC80003F58C3303A90E485A6C42F480725A64B6
:100DD8005A6C02F480720192019A1A6B42F0010275
:100DE8001A631B6B03F001030293029B0C2303930A
:100DF8000323049301F0A6F808B010BD00200140B9
:100E080000000240026882B0084B9A420BD1D3F826
:100E1800302803F5006342F480521A631B6B03F415
:100E280080530193019B02B0704700BF003002401D
:100E380010B514228AB0044600210DEB020011F00F
:100E4800DEFB2368254A934222D1254C05A9254873
:100E5800236B43F002032363236B03F00203019324
:100E6800019BC023059312230693012307930323B1
:100E780008930423099301F065F8236C43F40013E5
:100E88002364236C03F400130293029B0AB010BD81
:100E9800154A9342FAD1124C05A91448236B43F022
:100EA80080032363236B03F080030393039B3023A6
:100EB800059312230693012307930323089304231E
:100EC800099301F03FF8236C43F480032364236CF7
:100ED80003F480030493049BD8E700BF0054004048
:100EE800003802400004024000580040001C024044
:100EF800026882B0074B9A4209D1074B5A6B42F0FD
:100F080040025A635B6B03F040030193019B02B0FC
:100F1800704700BF00080650003802400268044BC2
:100F28009A4204D1034A136F43F40043136770478E
:100F380000280040003802402DE9F04188B00546FD
:100F48001422002103A811F05AFB2A68364B9A4252
:100F580066D103F586330C24022603275A6C0DEB61
:100F6800040132484FF0040842F400625A645A6C93
:100F780002F400620092009A1A6B42F004021A63AB
:100F88001A6B02F004020192019A1A6B42F00802ED
:100F98001A631B6B049603F00803079406970293E1
:100FA800029B4FF4F853039300F0CCFF04960026FD
:100FB8000DEB04011E480794CDF80C801D4C0596D6
:100FC800069700F0BFFF4FF000631B4A2046A6605B
:100FD800E6602662C4F82480A76284E80C004FF417
:100FE800806323614FF4805363614FF48043A361AE
:100FF8002023E3614FF40003E3624FF400132363FB
:1010080000F03EFD08B1FFF7B5FE3120EC632C641B
:1010180000220421A56300F051FC312000F086FC79
:1010280008B0BDE8F08100BF002C01400008024074
:10103800000C0240F848062058640240F0B58FB012
:1010480004461422002109A811F0D9FA2368574A46
:10105800934236D1564B0226032505245A6C09A91A
:10106800544842F480525A645A6C02F480520092F6
:10107800009A1A6B42F001021A631A6B02F001021D
:101088000192019A1A6B42F040021A631B6B0A968E
:1010980003F040030C950D940293029B48F2A003C1
:1010A800099300F04FFF4FF4007309A942480993D0
:1010B80000230A960B930C950D9400F043FF0FB094
:1010C800F0BD3E4A934232D1394B0226032505240E
:1010D8001A6C09A93A4842F480421A641A6C02F45C
:1010E80080420392039A1A6B42F004021A631A6B45
:1010F80002F004020492049A1A6B42F002021A6384
:101108001B6B0A9603F002030C950D940593059B3F
:101118000623099300F016FF4FF440530A960C95E6
:10112800099300230D940B9309A92648C5E7264A7D
:101138009342C4D11E4B0225032406261A6C09A922
:101148001C48002742F400421A641A6C02F4004258
:101158000692069A1A6B42F001021A631A6B02F0A1
:1011680001020792079A1A6B42F002021A631B6B7C
:101178000A9503F002030C940D960893089B10231C
:10118800099300F0DFFE042309A90E4809930723F9
:101198000A950D930B970C9400F0D4FE08230A953A
:1011A8000B9709930C940D96BEE700BF00300140E1
:1011B8000038024000000240001802400038004099
:1011C8000008024000040240003C00407FB503686C
:1011D800334A934214D1334B1D2002211A6C42F03A
:1011E80002021A6400221B6C03F002030193019BA4
:1011F80000F064FB1D2000F099FB07B05DF804FBCC
:10120800294A934210D1274B322002211A6C42F00E
:1012180008021A6400221B6C03F008030293029B65
:1012280000F04CFB3220E6E7204A934210D11D4BD8
:10123800372002211A6C42F020021A6400221B6C2B
:1012480003F020030393039B00F038FB3720D2E719
:10125800174A934210D1134B192002215A6C42F4B9
:1012680000325A6400225B6C03F400330493049B3D
:1012780000F024FB1920BEE70E4A9342BDD1094B6A
:101288001A2002215A6C42F480225A6400225B6CB4
:1012980003F480230593059B00F010FB1A20AAE7AE
:1012A8000004004000380240000C004000140040D8
:1012B800004401400048014010B588B0044614229B
:1012C800002103A811F09BF92368174A934214D10F
:1012D800164B03A916481A6B42F002021A631B6BDD
:1012E80003F002030193019B202303930223049339
:1012F800079300F027FE08B010BD0E4A9342FAD1BA
:101308000A4B03A90C481A6B42F020021A631B6BA4
:1013180003F020030293029B802303930223049388
:1013280003230793E5E700BF0004004000380240AC
:1013380000040240004801400014024010B58CB07F
:1013480004461422002107A811F059F92368404ADD
:10135800934229D13F4B032407A93F485A6C42F0D6
:1013680010025A645A6C02F010020192019A1A6B28
:1013780042F002021A631B6B0A9403F00203029301
:10138800029B4FF4404307930223089304230B93D3
:1013980000F0D8FD25200022214600F08FFA2520F4
:1013A80000F0C4FA0CB010BD2C4A934225D1294B49
:1013B800032407A92A481A6C42F400321A641A6CEA
:1013C80002F400320392039A1A6B42F008021A637D
:1013D8001B6B0A9403F008030493049B6023079390
:1013E8000223089307230B9300F0ACFD262000226C
:1013F800214600F063FA2620D2E71A4A9342D1D157
:10140800144B032407A914481A6C42F480221A6466
:101418001A6C02F480220592059A1A6B42F00202B5
:101428001A631B6B0A9403F002030693069B4FF49E
:10143800406307930223089307230B9300F082FD70
:1014480027200022214600F039FA2720A8E700BF0C
:1014580000100140003802400004024000440040EF
:10146800000C0240004800407047FEE7FEE7FEE738
:10147800FEE770477047704708B500F0A3F8BDE86D
:10148800084005F06DBA0000014803F08FB800BFAE
:1014980074440620014803F089B800BF6447062059
:1014A800014803F083B800BFF8450620014803F05F
:1014B80063BB00BFE4460620014803F05DBB00BFE4
:1014C80038480620014803F057BB00BFA843062050
:1014D800014802F00FBE00BF34450620014803F062
:1014E80065B800BFB8450620014803F05FB800BFE3
:1014F800B8480620014800F053BB00BFF848062052
:10150800014801F071B800BF3C8A0620014800F08C
:101518003ABC00BFE48A06200F490020D1F8883081
:1015280043F47003C1F888300C4B1A6842F001028A
:101538001A6098601A6822F0847222F480321A6065
:10154800074A5A601A6822F480221A60D8604FF05D
:1015580000638B60704700BF00ED00E00038024078
:101568001030002438B50E4B05460E4A18784FF453
:101578007A73B3FBF0F31068B0FBF3F000F0F8F9FE
:10158800044658B90F2D09D8024629464FF0FF30B6
:1015980000F094F9044B20461D6038BD012038BD89
:1015A8006C000020680000207000002008B50320AF
:1015B80000F072F90020FFF7D5FFFFF7DDFB0020F0
:1015C80008BD0000034A044B11681B780B441360E4
:1015D800704700BF584906206C000020014B18686E
:1015E800704700BF5849062038B50446FFF7F6FF94
:1015F8000546631C1EBF044B1B78E418FFF7EEFF7B
:10160800401B8442FAD838BD6C00002038B5044627
:10161800002800F09B80056C25B9FFF7C5FB6564C1
:1016280084F83C50236CDB0600F18E80236C23F495
:10163800885323F0020343F002032364444B5A689F
:1016480022F440325A605A6861680A435A60236833
:1016580021695A6822F480725A605A6842EA012263
:10166800A1685A605A6822F040725A605A680A4360
:10167800E1685A609A6822F400629A609A680A439C
:1016880034499A60A26A8A4252D0996821F07061FE
:10169800996099680A43E16A9A609A6822F0405210
:1016A8009A609A680A439A609A68A16922F00202CD
:1016B8009A609A6842EA41029A6094F82020002AC7
:1016C8003ED05A68616A42F4006201395A605A6829
:1016D80022F460425A605A6842EA41325A60002055
:1016E800DA6AE16922F470020139DA62DA6A42EAF6
:1016F800015294F83010DA629A6822F400729A6003
:101708009A6842EA412261699A609A6822F4806282
:101718009A609A6842EA81229A606064236C23F096
:10172800030343F001032364002384F83C3038BDED
:101738009A6822F070629A609A6822F04052B2E782
:101748005A6822F40062C9E70120EDE7012038BD9C
:10175800002301400100000F0023F7B5019390F822
:101768003C30012B71D00D6801230468092D80F8E5
:101778003C30AEB28A6831D906EB46034FF0070E0B
:10178800E7681E3B0EFA03FE27EA0E07E7603D4FA7
:10179800BD421ED1E36843EA0263E3604A68062A51
:1017A8004FEA82032AD81344676B591F1F238B40C3
:1017B80006FA01F127EA03036363626B114361636D
:1017C800314B9C4239D0002380F83C30184603B096
:1017D800F0BDE76802FA03F33B43DEE705EB450398
:1017E8004FF0070E27690EFA03FE02FA03F327EA01
:1017F8000E07276127693B432361CFE70C2A0ED8E0
:101808001344216BA3F123021F23934006FA02F22B
:1018180021EA03032363236B1A432263D0E71344AB
:101828001F22E16A413B9A4021EA020206FA03F1CB
:10183800E262E26A1143E162C2E7122D07D1134A5C
:10184800536843F480035360BDE70220BFE70D4BA4
:101858009D4201D0112DB6D10C499D424A6842F4EF
:1018680000024A60AFD10A4B0A4A1B68B3FBF2F286
:101878000A2353430193019B002BA4D0019B013BF6
:10188800F8E700BF120000100020014000230140CB
:101898006800002040420F00074A0002D36800F4A5
:1018A800E06023F4E0631B041B0C43F0BF6343F4C4
:1018B80000330343D360704700ED00E0194B30B5A7
:1018C800DC68C4F30224C4F10703251D042B28BFD8
:1018D8000423062D4FF001058CBF033C002405FAB4
:1018E80003F3002803F1FF3301EA030101FA04F1CD
:1018F80005FA04F404F1FF3402EA040242EA0102A0
:101908004FEA021207DB00F16040D2B200F56140F5
:1019180080F8002330BD00F00F00D2B2024B1A54F9
:1019280030BD00BF00ED00E014ED00E0002808DB4A
:101938004209012300F01F0003FA00F0014B43F8AD
:101948002200704700E100E000280DDB4309012276
:1019580000F01F00203302FA00F0044A42F8230086
:10196800BFF34F8FBFF36F8F704700BF00E100E0F8
:101978000138B0F1807F0AD2064BF021064A586040
:10198800002082F82310072298601A60704701200F
:10199800704700BF10E000E000ED00E010B504461D
:1019A80008B9012010BD437F03F0FF0213B9027785
:1019B800FFF728FA022363772379E3B92368134AE8
:1019C8005A619A6822F018029A6062792368D2B93B
:1019D8004FF0FF321A6100209A68616922F06002B4
:1019E8000A43A1699A609A6822F080020A439A60C1
:1019F8000123637710BDE2682046A16800F008F86B
:101A08000028E2D0CDE72269E4E700BFB71DC10492
:101A18001F2310B513F1FF3306D321FA03F4E407AB
:101A2800F8D5082A14D009D872B9006841618368CA
:101A380023F018031A438260002010BD102A05D035
:101A4800182A01D1062BF0D9012010BD072BFAE77F
:101A58000F2BF8E703681821DAB223F47F73103AE2
:101A680023F00303B2FBF1F20449032A895C88BF1F
:101A78000433C1658365806D704700BF846A0108BF
:101A880070B50446FFF7AAFD0546002C71D0002367
:101A9800226884F83430022384F83530136823F040
:101AA8000103136021680B68D8073CD40B68324DDA
:101AB80062681D40A368A0691343E2681343226962
:101AC800134362691343E26903431343226A1343CE
:101AD800626A042A43EA050301BF266BE56A3543B7
:101AE8002B43042A0B604B6923F0070343EA0203E4
:101AF8000BD1A26AE56A13433DB1F8B9012A2DD08A
:101B080001D3022A01D1EA012BD44B612046FFF709
:101B1800A1FFE26D3F2393408360002001236065AD
:101B280084F8353070BDFFF759FD401B0528B9D939
:101B380020230320636584F8350070BDB0F5005F8D
:101B480013D1032AE1D801A050F822F06B1B00083A
:101B58000F1B00086B1B0008651B0008B5F1C07F50
:101B6800D3D1402301206365E5E7022AF9D9032A86
:101B7800C8E7012070BD00BF3F8010E090F8353005
:101B8800022B03D080234365012070470268052398
:101B980080F835300020136823F001031360704784
:101BA8000023F7B501930822594B0446856D1F6839
:101BB800C36D2E689A4016420CD001680868400729
:101BC80008D5086820F004000860AA60626D42F039
:101BD8000102626501229A40164208D021684969CB
:101BE800090604D5AA60626D42F002026265042209
:101BF8009A40164208D021680968880704D5AA6067
:101C0800626D42F00402626510229A40164210D0BA
:101C18002368196809070CD5AA601A68500335D5D6
:101C28001B68190301D4236C00E0A36C0BB1204698
:101C38009847E16D20228A40164238D023681868F8
:101C4800C60634D5AA6094F83520052A1A6825D125
:101C580022F016021A605A6922F080025A61226C38
:101C68000AB9A26C1AB11A6822F008021A603F2356
:101C78008B40AB60002384F83430012384F835307E
:101C8800236D0BB12046984703B0F0BD1A68D20502
:101C9800C9D41A6822F008021A60C4E7500328D58C
:101CA8001B68190332D4636C0BB120469847636DE7
:101CB800002BE9D0636DDA0719D50523226884F86B
:101CC8003530136823F0010313604FF41653B7FB44
:101CD800F3F7019B01339F42019302D31368DB079B
:101CE800F7D4002384F83430012384F83530E36CCA
:101CF800C7E71A6812F4807208D1196821F0100138
:101D08001960012384F8342084F83530E36BCBE77D
:101D18006800002010B50446002830D090F85130F3
:101D280003F0FF021BB980F8502004F0B7F9022332
:101D38006168206984F8513023681A6822F44032B7
:101D48000A43A1681A605A6B22F007020A43E16845
:101D58005A631A6C22F47F5222F03F020A431A6433
:101D68006269596B520521F4401142EA0052002081
:101D78000A435A630123606584F8513010BD01207D
:101D880010BD70477047036870B55E6804461D68EB
:101D9800F20714D5E90512D51A6822F480721A6080
:101DA800426D42F00102426501229A60042380F8E4
:101DB8005130002380F85030C36903B19847B20608
:101DC80016D5AB0414D523681A6822F400521A6099
:101DD80020229A60636D43F002036365042384F84C
:101DE8005130002384F85030E3690BB120469847FE
:101DF800300716D5290514D523681A6822F400621D
:101E08001A6008229A60636D43F004036365042333
:101E180084F85130002384F85030E3690BB1204630
:101E2800984772070BD56B0509D5236820461A68B1
:101E380022F480621A6004229A60FFF7A2FFB007BA
:101E480014D5A90512D523681A6822F400721A60FD
:101E580002229A60636D6365012384F85130002380
:101E680084F85030A3690BB120469847F20613D581
:101E7800EB0411D5236820461A6822F480521A60B0
:101E880010229A60636D6365012384F85130002342
:101E980084F85030FFF776FF70BD000090F850309E
:101EA800012B4FF00203F0B541D01824012280F82D
:101EB800513004FB0104224F80F85020226BA66A9F
:101EC8001305656A626B43EA0643E66A2B43093DDC
:101ED800012D43EA425302680ED806F07F46334389
:101EE80069B9516A39400B435362036A9361C36A03
:101EF80023F07F43936214E043EA0663C9B1D469CF
:101F0800012D04EA070443EA0403D3614FF01803E0
:101F180003FB01010B6A136103D8CB6A23F07F43EB
:101F28001362012380F85130002380F8503018469E
:101F3800F0BD516A39400B435362036A9361F0E77D
:101F4800F0FFCC002DE9F04F0B6885B0DFF8C081B9
:101F5800019300236C4ADFF8BC914FF0010E019CFD
:101F68000EFA03FE0EEA0406B64540F0B3804C684C
:101F780024F01007022F16D14FEAD30A03F0070BFB
:101F88004FF00F0C00EB8A0A4FEA8B0BDAF820505F
:101F98000CFA0BFC25EA0C0C0D6905FA0BF545EA61
:101FA8000C05CAF820504FEA430A0325D0F800B0C0
:101FB80004F0030C05FA0AF5013F0CFA0AFCED439C
:101FC800012F0BEA050B4CEA0B0CC0F800C011D826
:101FD800876807EA050BCF6807FA0AFC4CEA0B0783
:101FE8008760476827EA0E0EC4F300179F4047EA48
:101FF8000E074760C7683D408F6807FA0AF73D43F8
:10200800C560E50066D5D8F8445023F0030703F00F
:10201800030E4FF00F0C45F4804507F180474FEA57
:102028008E0EC8F8445007F59C37D8F8445005F48C
:1020380080450395039D0CFA0EF5D7F808A02AEA07
:10204800050C324DA8424CD005F58065A8424AD00F
:1020580005F58065A84248D005F58065A84246D0B8
:1020680005F58065A84244D0484544D005F500658B
:10207800A84242D005F58065A84240D005F58065A4
:10208800A8423ED005F58065A84214BF0A25092557
:1020980005FA0EF514F4803F45EA0C05BD606FEAB9
:1020A800060715680CBF3D40354314F4003F156022
:1020B80055680CBF3D40354314F4801F5560956842
:1020C8000CBF3D403543A4029560D56854BF3D40E0
:1020D8003543D5600133102B7FF43FAF05B0BDE821
:1020E800F08F0025D4E70125D2E70225D0E70325A4
:1020F800CEE70425CCE70525CAE70625C8E7072566
:10210800C6E70825C4E700BF003C014000000240C4
:1021180000380240001402402DE9F04F0022464DDD
:10212800DFF81C91DFF81CA1DFF81CB1012303FACA
:1021380002FC0CEA0104A44567D122F0030602F070
:10214800030E0F273D4B06F180464FEA8E0E98424C
:1021580006F59C3607FA0EF7D6F8088008EA07084D
:1021680058D003F58063984256D003F580639842AF
:1021780054D003F58063984252D003F580639842A7
:1021880050D0484550D0504550D0584550D003F510
:10219800805398424ED003F5806398420CBF0923C0
:1021A8000A2303FA0EF3984510D1B368E44323EAEF
:1021B8000707B7602B6823402B606B6823406B6070
:1021C800AB682340AB60EB681C40EC60560003230F
:1021D800046802F0070EB3400F274FEA8E0EDB4368
:1021E80007FA0EF71C400460D40800EB8404266A42
:1021F80026EA0707276284681C408460446824EA4A
:102208000C044460C4682340C3600132102A8DD195
:10221800BDE8F08F0023C4E70123C2E70223C0E72B
:102228000323BEE70423BCE70523BAE70623B8E780
:102238000723B6E70823B4E7003C0140000002404A
:102248000014024000180240001C024003691942B1
:1022580014BF0120002070470AB18161704709044A
:10226800FBE710B5044600284AD090F8413003F047
:10227800FF021BB980F84020FEF7DAFD2423E1684D
:1022880084F84130012923681A6822F001021A6093
:10229800626822F070621A619A6822F400429A60B9
:1022A800A26824D142F400429A605A680020616909
:1022B80042F0007242F400425A60DA6822F40042A6
:1022C800DA6022690A43A16942EA0122216ADA60D6
:1022D800E2690A431A601A6842F001021A60202370
:1022E800606484F84130206384F8420010BD42F4F1
:1022F800044202299A60D8D14FF400625A60D4E7A8
:10230800012010BD90F84120D2B2202A10B51DD16D
:1023180090F84030012B19D0242380F8413003680D
:102328001C6824F001041C601C6824F480541C60A0
:102338001C6821431960196841F0010119600023E4
:1023480080F8412080F84030184610BD022010BDAA
:1023580010B590F84140E4B2202C1CD190F84030E0
:10236800012B18D0242380F8413003681A6822F022
:1023780001021A601A6822F4706242EA01211960A7
:102388001A6842F001021A60002380F8414080F880
:102398004030184610BD022010BD38B5044608B3B9
:1023A80003684CF6CC421A6045F255521A604268EE
:1023B8005A6082689A60FFF711F905462368D86861
:1023C80028B91969E268914208D01A6138BDFFF747
:1023D80005F9401B3028F1D9032038BD4AF6AA2256
:1023E8001A6038BD012038BDD2014FF0000C2DE92C
:1023F800F043843204684F68A318E568D1F800E018
:102408005868C5F30B450EF10106D1F8189000F491
:1024180070403D445860E068C0F30B40304440EAE7
:102428000540CD685860E068C0F30A000544986824
:1024380000F4704098608868E6680130C6F30A06C0
:1024480030440E6940EA05409860186920F007009A
:1024580018611E619D6991F8320091F83180C3F8C6
:1024680018C091F8305045EA096545EA082545EA5B
:1024780000459D61586920F0FF005861486958611E
:10248800D86920F4E06020F00700D861086ACD69B7
:102498000543DD61986A486AC3F828C098621EB38C
:1024A800012E23D0B01E022822D9072E0CBF0220ED
:1024B8000120DD6AA7EB0E0705F0E025DD628D6AD5
:1024C800C96A45437843033040EA0540D862186B2F
:1024D80020F4FF6020F0070018631963A35843F045
:1024E8000103A350BDE8F0830420E2E70320E0E7FE
:1024F8000220DEE738B50446002863D090F8A13002
:1025080003F0FF021BB980F8A02003F037FC022378
:10251800A06884F8A13023689A6922F070429A6111
:10252800626899690243E06802432069024360696E
:102538000A4325499A619A680A409A609A6842EA69
:102548000042A0690243E0699A60DA680A40DA60EA
:10255800DA6842EA0042206A0243606ADA601A696D
:102568000A401A611A6942EA0042A06A02431A61E3
:102578005A6911405961E16A5A6942EA0142216B7C
:102588000A435A61D96A94F8360001F07F4194F8F9
:102598003550D962D96A94F834200A4342EA0522B0
:1025A80042EA00420020DA625A6B42F006025A639D
:1025B8009A6942F001029A610123C4F8A40084F8E0
:1025C800A13038BD012038BD00F800F010B5044630
:1025D80003F0C0FC0020C4F8A40084F8A00084F82C
:1025E800A10010BD70477047036870B59E6B044624
:1025F8005D6B720714D5690712D55A6B22F0040275
:102608005A630422DA63D0F8A43043F00103C0F817
:10261800A430002380F8A12080F8A030FFF7E2FF63
:10262800B20716D5AB0714D5236820465A6B22F09B
:1026380002025A630222DA63D4F8A4301343C4F8BE
:10264800A430042384F8A130002384F8A030FFF7D5
:10265800C9FFF00710D5E9070ED5236820465A6B45
:1026680022F001025A630122DA63002384F8A120D0
:1026780084F8A03004F02CF8320711D52B070FD5B9
:10268800236820465A6B22F008025A630822DA634C
:10269800012384F8A130002384F8A030FFF7A3FFBA
:1026A80070BDF8B590F8A03006468E469446012BCA
:1026B8004FF002001DD034240D4686F8A1000127F2
:1026C80004FB026486F8A07038340FCD0FC40FCD18
:1026D8000FC40FCD0FC42B68304662467146236085
:1026E800FFF782FE336800205F6286F8A17086F8E3
:1026F800A000F8BD90F8A030012B4FF0020310B5F0
:1027080013D0046880F8A13004EBC212D2F89030DC
:1027180003F07F43C2F890300123C2F8901063623F
:1027280080F8A130002380F8A030184610BDF0B51D
:1027380090F8A040012C4FF0020431D00125DE01B1
:1027480080F8A140342480F8A0508436002504FB8A
:1027580003034FF0885E954207D1012380F8A1302A
:10276800002380F8A0301846F0BD9C6C51F8257005
:10277800062C05BFFCB20EFB05FCBCB244EA0C04F7
:102788000CBF07F47F4C44EA056407F47F0708BFD1
:1027980044EA0C0401353C43076837443C64DAE7F3
:1027A8002046F0BD90F8A030012B4FF002030FD067
:1027B800C90180F8A130036884315A5842F00202F6
:1027C8005A5001225A62002380F8A12080F8A030D4
:1027D8001846704790F8A030012B4FF002030FD035
:1027E800C90180F8A130036884315A5822F00202E6
:1027F8005A5001225A62002380F8A12080F8A030A4
:1028080018467047F8B590F8A04005469E46012C3A
:102818004FF002041DD080F8A140342401275C4306
:1028280080F8A0700619336EB16319443264F163FD
:10283800716E11447246716404F138010144FFF766
:10284800D3FD2B6800205F6285F8A17085F8A00091
:10285800F8BD2046F8BD90F8A030012B4FF00203D8
:1028680070B5044615D080F8A130342301255343B0
:1028780080F8A050C618F16403F138010144FFF74D
:10288800B3FD236800205D6284F8A15084F8A0009D
:1028980070BD184670BD90F8A030012B4FF00203B0
:1028A80070B5044615D080F8A13034230125534370
:1028B80080F8A050C618F16503F138010144FFF70C
:1028C80093FD236800205D6284F8A15084F8A0007D
:1028D80070BD184670BD000090F8A030012B4FF075
:1028E800020312D080F8A13003685A6B22F001026B
:1028F8005A63074A11645A6B42F001025A63012372
:1029080080F8A130002380F8A0301846704700BF37
:1029180000680140024A136843F4807313607047EB
:1029280000700040194B37B51A6C194C42F08052B0
:102938001A641B6C03F080530193019B236843F4D2
:1029480080332360FEF74AFE05466368DA030CD538
:10295800236843F400332360FEF740FE0C4C054621
:1029680063689B030AD5002006E0FEF737FE401B8C
:10297800B0F57A7FE9D9032003B030BDFEF72EFE0B
:10298800401BB0F57A7FEBD9F5E700BF003802406D
:10299800007000402DE9F341044618B9012002B047
:1029A800BDE8F0810368D80710D4236899075ED47E
:1029B8002368190700F1A38023685A0700F1C4802F
:1029C800A269002A40F02E810020E8E7934B9A681C
:1029D80002F00C02042A07D09A6802F00C02082AB6
:1029E8000AD15B685A0207D58C4B1B689B03DCD560
:1029F8006368002BD9D1D1E76368884DB3F5803F70
:102A080011D12B6843F480332B60FEF7E7FD834D2B
:102A180006462B689F03C8D4FEF7E0FD801B642898
:102A2800F7D90320BBE79BB92B6823F480332B60CD
:102A38002B6823F480232B60FEF7D0FD06462B6815
:102A48009803B2D5FEF7CAFD801B6428F7D9E8E7DA
:102A5800B3F5A02F2B6803D143F480232B60D0E774
:102A680023F480332B602B6823F48023CCE76B4B53
:102A78009A6812F00C0F07D09A6802F00C02082A24
:102A880011D15B6859020ED4644B1A68920702D5BB
:102A9800E268012A82D11A68216922F0F80242EA22
:102AA800C1021A6084E7E3685C4DBBB12B6843F050
:102AB80001032B60FEF792FD06462B689F0707D59A
:102AC8002B68226923F0F80343EAC2032B606FE7FF
:102AD800FEF784FD801B0228EFD9A2E72B6823F0BC
:102AE80001032B60FEF77AFD06462B6898077FF5F1
:102AF8005FAFFEF773FD801B0228F6D991E7636983
:102B0800464D83B16B6F43F001036B67FEF766FDBB
:102B180006466B6F9B073FF54FAFFEF75FFD801BC7
:102B28000228F6D97DE76B6F23F001036B67FEF788
:102B380055FD06466B6F9F077FF53EAFFEF74EFDCE
:102B4800801B0228F6D96CE7344B1A6CD00027D4C6
:102B58001A6C012642F080521A641B6C03F08053F1
:102B68000193019B2E4D2B68D9051BD5A3682B4DCE
:102B7800012B27D12B6F43F001032B6741F28835D6
:102B8800FEF72CFD254F80463B6F9B073FD5002E57
:102B98003FF416AF214A136C23F0805313640FE7F8
:102BA8000026DFE72B6843F480732B60FEF716FDE1
:102BB80007462B68DA05D9D4FEF710FDC01B642838
:102BC800F7D92EE7ABB92B6F41F2883823F0010310
:102BD8002B672B6F23F004032B67FEF7FFFC0746D8
:102BE8002B6F9807D3D5FEF7F9FCC01B4045F7D9E2
:102BF80017E7052B2B6F03D143F004032B67B9E7C5
:102C080023F001032B672B6F23F00403B5E7FEF7CE
:102C1800E5FCA0EB0800A842B6D902E7003802405C
:102C280000700040244DAB6803F00C03082B3FF400
:102C3800B5AE2B68022A23F080732B602FD1FEF7E4
:102C4800CDFC06462B68990123D4226AE369134315
:102C5800626A43EA8213E26A43EA0263226B43EA46
:102C68000273A26A144C5208013A43EA02436B60A9
:102C78002B6843F080732B60FEF7B0FC0546236891
:102C88009A013FF5A1AEFEF7A9FC401B0228F6D930
:102C9800C7E6FEF7A3FC801B0228D3D9C1E6FEF7DE
:102CA8009DFC04462B689B017FF58EAEFEF796FCD3
:102CB800001B0228F6D9B4E600380240134908B5CB
:102CC8008B6803F00C03042B03D0082B03D01048A7
:102CD80008BD104808BD4A684B68496802F03F02C1
:102CE80013F48003C1F388111ABF0A480023084867
:102CF800A1FB0001FDF79CFA044B5B68C3F3014399
:102D080001335B00B0FBF3F008BD00BF00380240A0
:102D18000024F40040787D012DE9F0410D46044679
:102D280010B90120BDE8F081464A136803F00F038B
:102D38008B4228D321688F0730D4C80743D4414A2F
:102D4800136803F00F039D4267D32268510770D4BC
:102D5800130707D53C4A2169936823F4604343EA83
:102D6800C1039360FFF7AAFF374B384A9B68C3F348
:102D78000313D35CD840364B18600020FEF7F2FBF3
:102D88000020BDE8F081136823F00F030B431360A4
:102D9800136803F00F039942C3D1CBE711F0040F76
:102DA800294B03D09A6842F4E0529A600E0703D583
:102DB8009A6842F460429A609A68A06822F0F00229
:102DC80002439A60B9E761681F4B01291A681CD150
:102DD80012F4003FA5D09A6841F288381A4E22F0C2
:102DE80003020A439A60FEF7F9FB0746B368626874
:102DF80003F00C03B3EB820FA1D0FEF7EFFBC01B6F
:102E08004045F3D90320BDE8F081022902D112F030
:102E1800007FDFE712F0020FDCE7136823F00F03EF
:102E28002B431360136803F00F039D427FF479AFBF
:102E38008BE70549E0688B6823F4E05303438B6014
:102E480086E700BF003C0240003802406C6A010877
:102E580068000020044B054A9B68C3F38223D35CB7
:102E6800034A1068D8407047003802407C6A01085D
:102E780068000020044B054A9B68C3F34233D35CC7
:102E8800034A1068D8407047003802407C6A01083D
:102E9800680000202DE9F7430268044612F0010695
:102EA8000BD0BA4B996821F400019960466B996878
:102EB8003143B6FA86F67609996012F4002512D0E5
:102EC800B249E56BD1F88C30B5F5801F23F4401377
:102ED80008BF012643EA050316BFB5FA85F50025A4
:102EE8006D09C1F88C30D70210D5A848216CD0F8EC
:102EF8008C30B1F5800F23F4400343EA0103C0F896
:102F08008C3000F0A981002908BF012512F0807FCC
:102F180018BF0126900631D59C4B9D4F1A6C42F084
:102F280080521A641B6C03F080530193019B3B6829
:102F380043F480733B60FEF751FB80463B68D9053C
:102F480040F18C81914F3B6F13F4407340F09181B5
:102F5800236B03F44072B2F5407F8C4A40F0AF8196
:102F6800916823F0704021F4F81120F44070014377
:102F78009160C3F30B03116F0B4313672368DF06DC
:102F88000CD5824AD2F88C1021F08071C2F88C10CE
:102F9800D2F88C10A06B0143C2F88C10580408D5E5
:102FA8007A49606ED1F8902022F440320243C1F889
:102FB8009020190408D57549A06ED1F8902022F404
:102FC80040220243C1F89020DA0308D56F49E06E29
:102FD800D1F8902022F440120243C1F890209F03B8
:102FE80008D56A49206FD1F8902022F440020243A4
:102FF800C1F89020580608D56449606CD1F8902033
:1030080022F003020243C1F89020190608D55F494F
:10301800A06CD1F8902022F00C020243C1F8902055
:10302800DA0508D55949E06CD1F8902022F0300231
:103038000243C1F890209F0508D55449206DD1F866
:10304800902022F0C0020243C1F89020580508D50C
:103058004E49606DD1F8902022F440720243C1F8C5
:103068009020190508D54949A06DD1F8902022F47F
:1030780040620243C1F89020DA0408D54349E06D64
:10308800D1F8902022F440520243C1F890209F04C6
:1030980008D53E49206ED1F8902022F440420243E0
:1030A800C1F89020580208D53849A06FD1F890206F
:1030B80022F080620243C1F8902099020CD533486F
:1030C800E16FD0F89020B1F1006F22F0006208BFE4
:1030D80001250A43C0F8902013F0080F18BF0125F6
:1030E8005A0308D52949606FD1F8902022F0407220
:1030F8000243C1F890201F0209D52449D4F8800062
:10310800D1F8902022F080520243C1F89020580153
:1031180009D51E49D4F88400D1F8902022F0005235
:103128000243C1F89020190109D51849D4F888003C
:10313800D1F88C2022F000720243C1F88C20DA000A
:1031480009D51249D4F88C00D1F88C2022F080627D
:103158000243C1F88C20012E00F0B580B3F1007F46
:1031680000F0B180012D75D1084D2B6823F08053F4
:103178002B60FEF733FA06462B689F0000F1278183
:1031880021680E0306D5E36B43B103E00038024023
:1031980000700040CD021DD5236CDBB9934AD2F8EC
:1031A8008830D2F8880003F4403300F0E04003434D
:1031B800606943EA8013A06943EA0063C2F8883073
:1031C800D2F88C30A06A23F4F853013843EA00237C
:1031D800C2F88C30880215D5E36FB3F1006F11D1B6
:1031E800824AD2F88830D2F8880003F0706300F081
:1031F800E0400343606943EA8013206A43EA0043DE
:10320800C2F888300A0719D57849D1F88820D1F84A
:10321800883002F0706203F440331343626943EA72
:103228008213E26943EA0273C1F88830D1F88C301E
:10323800E26A23F440331343C1F88C306B4C2368A3
:1032480043F080532360FEF7C9F9054623689B00C5
:1032580040F1C480002009E0012657E6FEF7BEF9D8
:10326800A0EB080064287FF669AE032003B0BDE830
:10327800F083226B02F4407293423FF469AE3B6FD5
:103288003A6F23F4407342F480323A673A6F22F47B
:1032980080323A673B673B6FDA077FF559AEFEF736
:1032A8009DF941F2883980463B6F9B073FF550AE48
:1032B800FEF794F9A0EB08004845F5D9D5E79168E1
:1032C80021F4F81154E6494E336823F080633360E3
:1032D800FEF784F9074633681B0172D42268D707C2
:1032E80012D5636B83B9D6F88430D6F8841003F40A
:1032F800403301F070610B43616843EA8113A168B0
:1033080043EA0173C6F88430160303D5E36BB3F5BB
:10331800801F05D0D0021ED5236CB3F5800F1AD1BB
:103328003249D1F88430D1F8840003F4403300F0F6
:10333800E0400343606843EA8013E06843EA0063BF
:10334800C1F88430D1F88C00636A20F01F00013B7B
:103358000343C1F88C30D10111D52449D1F8843008
:10336800D1F8840003F0706300F0E0400343606824
:1033780043EA8013206943EA0043C1F8843092018C
:103388000DD5236962681B0443EA8213E26843EAA5
:103398000263A26843EA0273144AC2F88430134EE7
:1033A800336843F080633360FEF718F907463368E3
:1033B8001B013FF5D7AEFEF711F9C01B6428F6D9FB
:1033C80053E7FEF70BF9C01B642884D94DE7FEF7D5
:1033D80005F9801B64287FF6CFAE46E7FEF7FEF8B6
:1033E800401B64287FF632AF3FE700BF0038024039
:1033F80010B5044690B1437903F0FF0213B9027186
:10340800FDF776FD2268022300206371136843F0FC
:103418000403136001236371A06010BD012010BD77
:10342800026838B5D368044623F0A003D360FEF7DA
:10343800D5F805462368DB689B0601D5002038BD12
:10344800FEF7CCF8401BB0F57A7FF3D9032038BDDE
:1034580038B503680446DA68520601D5002038BD3D
:103468004FF0FF32DA60FEF7B9F805462368DB68EB
:103478005B06F3D4FEF7B2F8401BB0F57A7FF5D9B6
:10348800032038BD38B50446B0B1437F03F0FF02CE
:1034980013B90277FDF742FD0223CA22204663775B
:1034A80023685A6253225A62FFF7D2FF236828B171
:1034B800FF225A6204236377012038BD9A68256980
:1034C80022F4E00222F040029A60626899682A4376
:1034D80065692A430A43A1689A60E2681A611A6911
:1034E80042EA0142A1691A61DA6822F08002DA60D0
:1034F800DA6C22F00802DA64DA6C0A43DA64FF2232
:103508005A620123637738BD0023092803D840EAAB
:103518000310C0B270470A380133C0B2F5E7F8B5F6
:10352800037F06460F460225012B2FD0012345773E
:10353800037703684D7808788C789B6842BB13F052
:10354800400308BF0B73FFF7DFFF01462846FFF76C
:10355800DBFF02462046FFF7D7FF3B7B40EA0340EC
:1035680040EA014040EA02243368CA2230465A62DF
:1035780053225A62FFF76CFF33680546A0B1FF2259
:103588005A62042373770023337701252846F8BD50
:103598002D0213F0400345EA004008BF0B73204397
:1035A8000C7B40EA0444DFE704F07F34786924F0B8
:1035B800FE441C609A6822F480229A603A699968ED
:1035C80002430A439A60DA6822F08002DA609B6854
:1035D8009B060AD43046FFF723FF30B13368FF2239
:1035E8005A62042335777377CFE73368FF225A622C
:1035F8000123737700233377C8E7F8B5037F0546BF
:103608000226012B30D00123467703774B78C87800
:103618008E780C78002A48D1DA0603D523F01003F7
:103628000A334B70FFF770FF07464878FFF76CFFC7
:1036380002463046FFF768FF40EA443040EA074058
:1036480040EA02242B68CA2228465A6253225A6248
:10365800FFF7FEFE2B68064640B1FF225A6204239C
:103668006B7700232B7701263046F8BD24F07F4482
:1036780024F0C0045C60DA6822F08002DA609B689B
:103688009B060AD42846FFF7CBFE30B12B68FF22F1
:103698005A6204232E776B77E5E72B68FF225A627C
:1036A80001236B7700232B77DEE71B0243EA0040F8
:1036B800304340EA4434C5E7037F012B2DE9F0414C
:1036C80004460E4617464FF002003BD00123CA229B
:1036D8006077237723685A6253225A629A6822F4E1
:1036E80080629A60FDF77AFF236880469B685B05D5
:1036F80014D4236800209A6822F007029A609A6816
:103708003A439A605E619A6842F480629A60FF2246
:103718005A62012320776377BDE8F0812368DD686A
:1037280015F00405E5D1FDF759FFA0EB0800B0F549
:103738007A7FF3D92368FF2203205A6260772577BE
:10374800BDE8F081BDE8F0812DE9F043054689B078
:103758000E46FDF743FF00238146082128680093A1
:10376800019301F084FE044640BB296D28680904D2
:1037780001F088FF044608BB4FF0FF33069002A90A
:1037880028680293082303933023049302230593A4
:103798000123079301F058FE286801F0A4FF0446AE
:1037A80060B9074640F22A482868436B13EA080FB5
:1037B800436B07D0190718D508248463204609B03D
:1037C800BDE8F0839B0207D501F082FD08AB03EB4F
:1037D8008703013743F8200CFDF700FFA0EB090031
:1037E8000130E1D14FF00044E8E7436B9A0701D577
:1037F8000224E2E7436B9B0601D52024DDE740F273
:10380800FF538363009B1BBA7360019B1BBA336031
:10381800D4E72DE9F04F0D4687B004469146984607
:10382800109EFDF7DBFE07462DB9A36B43F000633E
:10383800A363012010E094F83400C0B2012840F0DE
:10384800C18009EB0803E26D00219342A16306D908
:10385800A36B43F00073A36307B0BDE8F08F0323A5
:10386800206884F83430636CC1624FF40071012B16
:1038780018BF4FEA492901F0FAFD50B1236840F218
:10388800FF529A63A36B1843A063012084F83400A5
:10389800E2E74FF0FF334FF0010A4FF0020B0490BC
:1038A80000934FEA48236946206801939023CDF896
:1038B8000CB00293CDF814A001F0C6FDD04525D96F
:1038C800C4F830B04946206801F001FE0028D5D17F
:1038D8002068436B13F4957F436B1ED0DB0509D535
:1038E800B8F1010F06D9636C032B03D001F038FE41
:1038F8000028C3D123685A6B100730D540F2FF5215
:103908009A63A36B43F00803A363BEE7C4F830A02F
:103918004946206801F0C3FDD8E71A040BD5A5F184
:10392800040905F11C0A206801F0D2FC49F8040FCB
:10393800D145F8D1203566B9236840F2FF520320FB
:103948009A63A36B43F00043A363012384F83430E4
:1039580082E7FDF743FEC01B8642B9D8ECE75A6BF5
:10396800910706D540F2FF529A63A36B43F0020316
:10397800CAE75A6B920618D540F2FF529A63A36BB6
:1039880043F02003C0E701F0A3FC45F8040B3EB95F
:10399800236840F2FF529A63A36B43F00043B3E7F6
:1039A800FDF71CFEC01B8642F2D92068436B13F456
:1039B8000013E8D140F2FF5282630122184684F8CE
:1039C800342049E7A36B43F0005331E72DE9F04376
:1039D8000D4687B0044691461E460E9FFDF7FEFD34
:1039E80080462DB9A36B43F00063A363012010E068
:1039F80094F83400C0B2012840F09D8009EB06031A
:103A0800E26D00219342A16306D9A36B43F00073D2
:103A1800A36307B0BDE8F0830323206884F834303B
:103A2800636CC1624FF40071012B18BF4FEA49293A
:103A380001F01DFD50B1236840F2FF529A63A36B59
:103A48001843A063012084F83400E2E7012E33D93B
:103A5800202349462068236301F069FD0028EAD144
:103A68004FF0FF3303900490694600937302206877
:103A78000193902302930123059301F0E5FC20684C
:103A8800436B13F48D7F436B1DD0DD0508D5012EE4
:103A980006D9636C032B03D001F062FD0028CAD15C
:103AA80023685A6B11072DD540F2FF529A63A36B16
:103AB80043F00803A363C5E710234946206823633E
:103AC80001F01DFDCAE75B0409D5A9462035494622
:103AD80009F10409206801F0FEFB4D45F7D157B9FB
:103AE800236840F2FF5203209A63A36BA363012368
:103AF80084F834308DE7FDF771FDA0EB08008742AC
:103B0800BDD8EDE75A6B920706D540F2FF529A638B
:103B1800A36B43F00203CDE7586B40F2FF5210F05D
:103B280010009A6303D0A36B43F01003C2E701238C
:103B380084F834306DE7A36B43F0005355E77047C2
:103B4800436E9A0F0A70C3F383624A70C3F301622B
:103B58008A70C3F30742CA70C3F30722DBB20A7143
:103B68004B71836E1A0E1201CA80CA8830B592B2A0
:103B7800C3F303542243CA80C3F303420A72C3F354
:103B88000722D4094C72C2F380148C72C2F3401419
:103B9800CC72C2F300140C7300244C73446C002CD8
:103BA80040F0838092029B0002F4406203F47F732A
:103BB8000A610A691343C26E0B610B6943EA927387
:103BC8000B61C2F3C2630B75C2F302634B75C2F398
:103BD80042538B75C2F38243CB75D30B03F00603B4
:103BE8000B76C2F307230C7EC2F3C03222430A7657
:103BF8000A690C7E01320234A240012442650D7A22
:103C0800AC408465640A6243C2654FF40072026680
:103C1800C3F380125B004A7603F07E038B76C36E93
:103C28008A7EC3F3C01403F07F0322438A76CB76DF
:103C3800036FDA0FC3F381500A77C3F341724A77EF
:103C4800C3F382628A779A0D02F00C02CA77CA7FA0
:103C580002430020CA77C3F3405281F82020C3F3FF
:103C6800004281F8210081F82220C3F3C03281F894
:103C78002320C3F3803281F82420C3F3403281F833
:103C88002520C3F3003281F82620C3F3812281F86E
:103C98002720C3F30122C3F3460381F8282081F8C3
:103CA8002930012381F82A3030BD012C1AD11B0498
:103CB80003F47C130B61C36E0A691C0E42EA0422EA
:103CC8000A61C3F307420C69C3F3072322430A615D
:103CD8000A69920202F580624265C2654FF4007279
:103CE800826594E7036840F2FF529A63836B43F05E
:103CF80080538363012380F83430184630BD70B593
:103D0800762398B0002504460C930AAB0A950B95C8
:103D180007950895099593E8070007AB8DE8070014
:103D280020680ECB01F0B8FA2068436823F480734A
:103D3800436001F0D5FA22680220536843F4807387
:103D48005360FDF751FC2068069501F03BFC0646E0
:103D580068B9206801F05EFC80B34FF6FF75A66471
:103D6800069B5A1CAB42069208D14FF08076012080
:103D780084F83400A16B0E43A66383E00021206819
:103D880001F080FC014610B14FF08056EFE7206843
:103D980001F090FC01460028F6D1206801F0BBFA3A
:103DA8000028DDDA0023636401232068ADF81630AB
:103DB80001F09AFA20BB4FF080656DE001234FF6C1
:103DC800FF75A364069B5A1CAB420692CDD0002116
:103DD800206801F057FC06460028C8D14FF0804102
:103DE800206801F067FC06460028C0D1014620681B
:103DF80001F091FA0028E5DA4300D3D50123D2E790
:103E0800636C032B1AD0206801F085FC0546002856
:103E180042D10146206801F07EFA042160672068DB
:103E280001F079FA0821A067206801F074FA0C21E2
:103E3800E067206801F06FFAC4F88000636C032B18
:103E480022D1636C032B2ED10421206801F063FA80
:103E58000DA9000DE0642046FFF772FE226D0023D5
:103E68002068120401F096FB0546A8B904F1100376
:103E780093E80700231D8DE8070020680ECB01F0AA
:103E88000BFA284618B070BD0DF11601206801F034
:103E98006DFC05460028D4D0012084F83400A36BBB
:103EA8001D43A563EEE7BDF81610206821650904D7
:103EB80001F046FC05460028EED10146206801F0D5
:103EC8002AFA04216066206801F025FA0821A06614
:103ED800206801F020FA0C21E066206801F01BFA46
:103EE8002067B1E710B50446A0B190F8343003F06C
:103EF800FF0213B90277FDF71FF80323204684F861
:103F08003430FFF7FCFE00200123A063206384F80F
:103F1800343010BD012010BD436C0B60836C4B60C6
:103F2800C36C8B60036DCB60436D0B61836D4B611C
:103F3800C36D8B61036E0020CB617047032370B59E
:103F480080F834308AB0436C04460E46032B02D006
:103F5800B1F5805F03D1A36B43F0805356E0B1F510
:103F6800006F2DD1002100680491059101F0D3F96B
:103F7800800120D404A92046FFF7E6FB60B9059B21
:103F880059031AD5216D2068090401F07BFB18B983
:103F98000221206801F06EFCA36B1843A063A56B97
:103FA800002D35D0236840F2FF5201209A6384F82F
:103FB80034000AB070BD3046EEE74FF08060EBE7A2
:103FC80009BB00680491059101F0A5F9820114D498
:103FD80004A92046FFF7B8FB60B9059BDB030FD5A2
:103FE800216D2068090401F04DFB18B901462068CD
:103FF80001F040FCA16B0843D0E74FF40060F9E7FB
:104008004FF08060F6E7836B43F00063A363C6E775
:10401800636807960493A3680593E3680693636946
:104028000893A36909930AAB13E9070004AB8DE869
:10403800070020680ECB01F02FF90123284684F8E9
:104048003430B6E7016D10B509040446006801F084
:10405800E1FB014628B9206801F05DF9C0F343206F
:1040680010BDA36B00201943A163F7E738B5846B33
:10407800236C0BB100232364E56BC5B92046FFF719
:10408800E1FF05380123A563C0B284F834309842B3
:104098000DD8206801F064FAA36B1843A06320468A
:1040A800A36B13B101F033FC38BDFFF748FD38BDF1
:1040B80038B5846BE36B0BB10023E363256CC5B99A
:1040C8002046FFF7BFFF05380123A563C0B284F877
:1040D800343098420DD8206801F042FAA36B184397
:1040E800A0632046A36B13B101F011FC38BDFFF7A4
:1040F80026FD38BD70B504460068436BDB054DD519
:104108004FF480738363C36B23F49D73C363236B82
:1041180013F0080F236B1ED09E0702D4236B9D0655
:1041280008D501F01DFA28B1A36B1843A0632046F7
:10413800FFF705FD236840F2FF5220469A630123EA
:1041480084F83430236BD90702D4236B9A0722D51D
:1041580001F0E7FB70BD1B0640F19B80236B9E06B8
:1041680008D501F0FDF928B1A36B1843A0632046D8
:10417800FFF7E5FC236BDD0700F18B80236B9807C5
:1041880000F1878022682046D36A23F00803D362AF
:10419800012384F8343001F0BFFB70BD436B590430
:1041A80010D5256A4FF4804305F12006836329461C
:1041B8000435206801F08FF8AE42F8D1236A203325
:1041C800236270BD436B1A0410D5A56A4FF40043EF
:1041D8002E1F1C358363206801F07AF846F8040F17
:1041E800AE42F8D1A36A2033A36270BD436B13F0CB
:1041F8003A0F4ED0436B9B0703D5A36B43F00203E2
:10420800A363436B1E0703D5A36B43F00803A363A3
:10421800436B9D0603D5A36B43F02003A363436B55
:10422800D90603D5A36B43F01003A36340F2FF53F1
:104238008363C36B23F49D73C363236B1A061FD573
:10424800206C48B1134B0365FDF798FC08B3206C4C
:10425800BDE87040FFF70ABFE06B48B10E4B03653D
:10426800FDF78CFCA8B1E06BBDE87040FFF720BFFC
:104278000123A063204684F8343001F048FB70BD68
:10428800236B1B0705D50123204684F83430FFF73C
:1042980056FC70BD75400008B940000838B50D4699
:1042A8000446C8B190F82C3003F0FF021BB980F81F
:1042B8002D2001F093FE0223211D206884F82C3064
:1042C80000F002FF62682946206800F03CFF0123E5
:1042D800002084F82C3038BD012038BD38B504469C
:1042E80090F82C000D46C0B202280DD00223206899
:1042F80084F82C3000F06FFF2B680020022B0CBFD5
:104308000523012384F82C3038BD10B5044690F8F5
:104318002C00C0B2022809D00223206884F82C306F
:1043280000F06CFF0123002084F82C3010BD70B51C
:10433800044600284ED00023836290F85D3003F0D5
:10434800FF021BB980F85C20FCF778FE0223216885
:10435800E26884F85D300B68B2F5E06F23F0400343
:104368000B604FF0000332D91846B2F5706F18BFD2
:10437800A362236B2BB9B2F5E06F8CBF0223012334
:104388002363A6686368A56933432669334366696E
:104398003343E6693343266A3343A66A334305F455
:1043A80000762D0C334305F004050B60636A1A434D
:1043B800636B1A432A43024300204A60CB6923F403
:1043C8000063CB610123206684F85D3070BD4FF433
:1043D8008050CCE7012070BD036A23F0010370B55B
:1043E8000362036A4268846923F002030D6824F4B7
:1043F800803424F073042C438D682B430E4DA8425F
:1044080002D00E4EB04211D123F00803CE68A84264
:1044180043EA060323F0040302D0084DA84205D15D
:104428004D6922F440728E6935432A4342604A68D6
:1044380084614263036270BD0000014000040140D2
:10444800036A23F4807370B50362036A4268C4691F
:1044580023F400730D6824F4803424F073042C438F
:104468008D6843EA0523114DA84203D005F5806500
:10447800A84214D1CD6823F4006343EA05230B4D09
:10448800A84223F4806303D005F58065A84206D1CD
:104498004D6922F440528E69354342EA0512426062
:1044A8004A68C461C263036270BD00BF0000014076
:1044B800036A23F4805330B50362026A4468C3690F
:1044C80022F400520D6823F0807323F4E64343EA94
:1044D80005238D6842EA0532084DA84203D005F548
:1044E8008065A84204D124F480444D6944EA8514C7
:1044F8004460C3614B680364026230BD0000014040
:10450800036A23F4803330B50362026A4468436D5A
:1045180022F400320D6823F4803323F070032B4318
:104528008D6842EA0542094DA84203D005F5806529
:10453800A84204D124F480344D6944EA0524446037
:1045480043654B688365026230BD00BF00000140CF
:10455800036A23F4801330B50362026A4468436D2A
:1045680022F400120D6823F0807323F4E04343EA39
:1045780005238D6842EA0552084DA84203D005F587
:104588008065A84204D124F480244D6944EA852436
:10459800446043654B68C365026230BD000001405A
:1045A80070477047704770477047704703681A69CB
:1045B800910710B504460FD5DA6892070CD56FF04D
:1045C80002021A6101229B690277990700F085802F
:1045D800FFF7E9FF0023237723681A69520710D5EC
:1045E800DA6850070DD56FF0040220461A610222DE
:1045F8009B69227713F4407F75D0FFF7D4FF00231F
:10460800237723681A6911070FD5DA6812070CD5C2
:104618006FF0080220461A610422DB6922779B07A3
:1046280067D0FFF7C0FF0023237723681A69D006F5
:1046380010D5DA68D1060DD56FF0100220461A6140
:104648000822DB69227713F4407F58D0FFF7ABFFCD
:104658000023237723681A69D20708D5DA68D007B8
:1046680005D56FF0010220461A61FFF79AFF23680B
:104678001A69110608D5DA68120605D56FF08002A6
:1046880020461A6100F065FA23681A69D00508D532
:10469800DA68110605D56FF4807220461A6100F0B9
:1046A80059FA23681A69520608D5DA68500605D5FA
:1046B8006FF0400220461A61FFF777FF23681A69F6
:1046C800910622D5DA6892061FD56FF0200220469F
:1046D8001A61BDE8104000F03BBAFFF763FF2046BF
:1046E800FFF762FF76E7FFF75DFF2046FFF75CFF05
:1046F80085E7FFF757FF2046FFF756FF93E7FFF7D9
:1047080051FF2046FFF750FFA2E710BD304A03686B
:10471800904212D0B0F1804F0FD0A2F57C42904267
:104728000BD002F58062904207D002F58062904279
:1047380003D002F57842904219D14A6823F07003F9
:104748001343234A904229D0B0F1804F26D0A2F5D6
:104758007C42904222D002F5806290421ED002F53F
:10476800806290421AD002F57842904216D0194AD7
:10477800904213D002F5806290420FD002F5806219
:1047880090420BD0A2F59832904207D002F5806291
:10479800904203D002F58062904203D123F4407323
:1047A800CA6813434A6923F08003134303608B6884
:1047B800C3620B688362064B984203D003F580639B
:1047C800984201D10B69036301234361704700BF1D
:1047D800000001400040014010B50446A0B190F827
:1047E8003D3003F0FF021BB980F83C20FCF7EEFCDB
:1047F80002232068211D84F83D30FFF787FF01233D
:10480800002084F83D3010BD012010BD10B50446CD
:10481800A0B190F83D3003F0FF021BB980F83C20AE
:10482800FFF7BEFE02232068211D84F83D30FFF704
:104838006DFF0123002084F83D3010BD012010BD1C
:10484800036A23F0100370B50362036A426884693F
:1048580023F020030D6824F0807424F4E64444EA2D
:1048680005248D6843EA0513104DA84203D005F5C9
:104878008065A84214D1CD6823F0800343EA05136C
:104888000A4DA84223F0400303D005F58065A842ED
:1048980006D14D6922F440628E69354342EA8502A9
:1048A80042604A6884618263036270BD000001400F
:1048B80038B590F83C3004460220012B10D0012373
:1048C800082A84F83D0084F83C3043D009D8FAB16E
:1048D800042A2ED00123002084F83D3084F83C00BF
:1048E80038BD102A47D0142A56D00C2AF2D1206895
:1048F800FFF7DEFD23680969DA6942F40062DA61CC
:10490800DA6922F48062DA61DA6942EA012230E087
:104918002068FFF761FD236809699A6942F0080277
:104928009A619A6922F004029A619A690A439A6123
:10493800D0E72068FFF784FF236809699A6942F481
:1049480000629A619A6922F480629A619A6942EADD
:104958000122ECE72068FFF773FD23680969DA692B
:1049680042F00802DA61DA6922F00402DA61DA69EF
:104978000A43DA61AEE72068FFF7C2FD23680969D8
:104988005A6D42F008025A655A6D22F004025A65BF
:104998005A6D0A435A659DE72068FFF7D9FD2368D9
:1049A80009695A6D42F400625A655A6D22F48062B0
:1049B8005A655A6D42EA0122ECE710B50A43846849
:1049C80042EA032324F47F442343836010BD00009C
:1049D80090F83C30012B70B504464FF0020017D018
:1049E80084F83D000123206884F83C308268414BFC
:1049F800134083600B68402B65D015D8102B0CD062
:104A080007D853B10123002084F83D3084F83C00D6
:104A180070BD202B01D0302BF4D1826843F00703FE
:104A280022F0700213431AE0602B34D019D8502BAF
:104A3800E8D14A68CE68016A056A21F00A0125F0C2
:104A480001050A430562836923F0F00343EA06136C
:104A580083610262836823F0700343F05703836025
:104A6800D0E7702B0CD0B3F5005FCBD1CB684A6888
:104A78008968FFF7A2FF2268936843F4804308E03F
:104A8800CB684A688968FFF798FF2268936843F003
:104A980077039360B6E74D68CE68016A21F010018C
:104AA80001628269036A22F4704223F0A00342EA99
:104AB800063243EA051382610362836823F07003B8
:104AC80043F06703CBE74A68CE68016A056A21F0BC
:104AD8000A0125F001050A430562836923F0F00302
:104AE80043EA061383610262836823F0700343F08C
:104AF8004703B4E78800FEFF90F83C30012B4FF0E5
:104B0800020330B51FD00268104D80F83D30AA422C
:104B18005368946803D005F58065AA4203D123F44D
:104B280070034D682B430D6823F07003896824F0E7
:104B380080042B43214353600123916080F83D306A
:104B4800002380F83C30184630BD00BF000001400B
:104B580070477047704703681A6822F490721A60A9
:104B68009A6822F001029A60202383670023036673
:104B780070477047704700000368DA69196870B5B4
:104B8800160704469D6809D1950663D58E0661D53A
:104B9800036E002B75D0BDE87040184715F0010072
:104BA80002D111F4907F55D0D50707D5CE0505D58C
:104BB80001251D62E56F45F00105E567950706D5F6
:104BC80028B102251D62E56F45F00405E567560723
:104BD80006D528B104251D62E56F45F00205E56795
:104BE800150707D58E0600D420B108201862E36F98
:104BF8000343E367E36F002B43D0950605D588068A
:104C080003D5236E0BB12046984722682046E56FEE
:104C18009268510602D415F0080517D0FFF79BFFDC
:104C280023689A6852060DD59A68E06E22F0400211
:104C38009A6038B1134B0365FCF7A0FF08B3E06E28
:104C4800036DA8E72046FFF795FF70BDFFF792FFB9
:104C5800E56770BD160605D50D0603D5636E83B1ED
:104C6800204698E750060CD54A060AD51A68204609
:104C780022F040021A602023636700236366FFF76F
:104C880078FF70BD914C000808B5806B0023A0F830
:104C98005A30A0F85230FFF76DFF08BD38B5C26929
:104CA80004460368816800691D680143606901431F
:104CB800904811432840256A0143E0681960596803
:104CC80021F4405101435960A1699868294320F4AF
:104CD80030600143996088498B4217D1874B8849D6
:104CE800D3F8903003F00303B2F5004FCB5C29D121
:104CF800082B00F29D80DFE813F08C00E800EE003E
:104D08009B00FA009B009B009B0076007D498B422C
:104D180006D17A4B7C49D3F8903003F00C03E3E7D3
:104D28007A498B421DD1754BD3F8903003F030038C
:104D3800102B00F0D9800ED8002B67D0B2F5004FA9
:104D480076D01023082B73D8DFE803F0999FA2725E
:104D5800B4727272B700202B00F0BA80302B3FD0AB
:104D6800ECE76B498B420DD1644BD3F8903003F0DC
:104D7800C003402B00F0B880DED9802B00F0A8805B
:104D8800C02BECE763498B4210D15C4BD3F89030D1
:104D980003F44073B3F5807F00F0A680CCD9B3F557
:104DA800007F00F09580B3F5407FD8E75A498B42E1
:104DB8001ED1524BD3F8903003F44063B3F5806FA3
:104DC80000F0928006D8002B7CD0B2F5004F2FD18E
:104DD80010238DE7B3F5006F7AD0B3F5406FF4D1A7
:104DE800B2F5004F69D16368580800F5803078E063
:104DF8004A498B4224D1414BD3F8903003F44053B5
:104E0800B3F5805F70D015D8002BDED1B2F5004F16
:104E180035D1FEF71FF86268530803EB4000B0FB7A
:104E2800F2F080B24FF6EF73A0F110029A421AD94D
:104E3800012020E0B3F5005F4AD0B3F5405FCEE72C
:104E480037498B42F4D12D4BD3F8903003F44043CB
:104E5800B3F5804F48D07FF66FAFB3F5004F37D02A
:104E6800B3F5404F7BE720F00F03C0F34200226800
:104E78001843D060002000232366636638BDFDF721
:104E8800E9FF636800EB530008E0FDF7F3FFF8E77C
:104E98006368580800F5740000F51050B0FBF3F093
:104EA80080B24FF6EF73A0F110029A42C0D823687F
:104EB800D860DFE7FDF702FFE3E76368580800F50D
:104EC8000040EBE7B2F5004FDFD1FDF7D3FFA2E7D3
:104ED800B2F5004FDCD16368580800F1F47000F5B2
:104EE8009040B0FBF3F09CE7B2F5004FE2D1FDF73C
:104EF800E5FE90E7F369FFEF00100140003802403B
:104F08008C6A010800440040906A0108004800408B
:104F1800004C004000500040001401400078004060
:104F2800007C0040436ADA0710B506D50168846A38
:104F38004A6822F4003222434A609C0706D5016879
:104F4800C46A4A6822F4803222434A60590706D567
:104F58000168046B4A6822F4802222434A601A07D7
:104F680006D50168446B4A6822F4004222434A602D
:104F7800DC0606D50168846B8A6822F480522243D5
:104F88008A60990606D50168C46B8A6822F40052C3
:104F980022438A605A0610D50168046C4A68B4F541
:104FA800801F22F4801242EA04024A6005D14A684E
:104FB800446C22F4C00222434A601B0606D50268EC
:104FC800816C536823F400230B43536010BD2DE913
:104FD800F041069D04460F46164698462168CA6960
:104FE80037EA02030CBF01220022B24202D000209D
:104FF800BDE8F0816B1CF2D0FCF7F0FAA0EB0800DA
:10500800854201D3002DE9D1236803201A6822F4D0
:10501800D0721A609A6822F001029A6020236367AE
:10502800A367002384F87030BDE8F08137B5002508
:105038000446C567FCF7D2FA2268034612681207CD
:1050480007D420230020636784F87000A36703B0A7
:1050580030BD6FF07E424FF40011204600922A4680
:10506800FFF7B5FF0028ECD00320F0E710B50446A1
:1050780040B3436F1BB980F87030FCF75FF92268C2
:10508800242320466367136823F001031360FFF7A6
:1050980005FE012816D0636A13B12046FFF742FFC8
:1050A800236820465A6822F490425A609A6822F08F
:1050B8002A029A601A6842F00102BDE810401A609C
:1050C800FFF7B4BF012010BD0B684A68012BD1F867
:1050D80010C003682DE9F043D1F80890D1F80C808E
:1050E8004D698C69D1F81CE00F6A4E6A14D023F41C
:1050F800FF4323F07F031A4342EA090242EA080207
:1051080042EA0C032B43234343EA0E033B43334356
:1051180003600020BDE8F083416823F4F84321F4DC
:10512800FF4143EA0E0321F07F013B430A431E433C
:1051380042EA0902066042EA080242EA0C032B43EB
:1051480023434360E5E7012AD1F80CC0F0B591E8A4
:1051580008408F680D694E6989691BD082680EF115
:10516800FF3E013B0CF1FF3C02F07042013D013E65
:10517800013942EA0E121A437B1E42EA032343EA2C
:105188000C3343EA054343EA065343EA0163836069
:105198000020F0BD84680EF1FF3EC268013B24F494
:1051A80070040CF1FF3C02F07042013E24F470449C
:1051B800013942EA0E1244EA0C341A437B1E44EACF
:1051C800065642EA03226B1E866042EA034343EA1C
:1051D8000163C360DCE791E80C0013B51343CA68A8
:1051E8000446002043EA42238A680190013A43EAD0
:1051F80042130193019B236102B010BD436943EA46
:105208004101416100207047114B4FF4FA521B686D
:10521800B3FBF2F241F28833534313F1FF3314D353
:10522800426B12F0450FF8D0436B5B0703D504239C
:10523800836318467047436B13F0010301D00123C1
:10524800F6E740F2FF528263F3E74FF00043F0E7DE
:10525800680000200F4B4FF4FA521B68B3FBF2F2C0
:1052680041F28833534313F1FF330FD3426B12F0EB
:10527800450FF8D0436B13F0040303D00423836372
:105288001846704740F2FF528263F9E74FF000403A
:10529800704700BF6800002084B010B503AC84E8F4
:1052A8000E000499039B42680B43059922F4FD42C2
:1052B8000B43069922F07F020B4307990B43089989
:1052C8000B43BDE81040134304B04360002070470F
:1052D800D0F8800070470B68C0F880300020704715
:1052E8000323036000207047006800F00300704744
:1052F8000B6810B583608C684B68C2682343CC6820
:1053080022F47F620969234322F00F020B431343FF
:10531800C360002010BD143082B000230144019303
:105328000191019B186802B070470000444B10B50A
:105338001B684FF4FA54B3FBF4F35A43002A49D0DC
:10534800436B013A13F0450FF8D0436B5C0703D564
:1053580004238363184610BD436B13F0010301D087
:105368000123F6E70269D2B2914236D140F2FF52E8
:1053780019468263FFF7CFFF324B0340002BE9D079
:1053880000282CDB42002DD484002DD4C1002DD45C
:1053980002012ED444012FD4C10130D4020231D4E9
:1053A800440232D4810233D4C20234D4440335D403
:1053B800810336D4C20337D4040438D4410439D421
:1053C80082043AD410F0080F14BF4FF400034FF4CE
:1053D8008033BFE74FF00043BCE70123BAE74FF043
:1053E8000073B7E74023B5E78023B3E74FF4807332
:1053F800B0E74FF40073ADE74FF48063AAE74FF4CA
:105408000063A7E74FF48053A4E74FF40053A1E7E4
:105418004FF480439EE74FF400439BE74FF400337B
:1054280098E74FF4802395E74FF4002392E74FF471
:1054380080138FE74FF400138CE74FF4800389E75C
:105448006800002008E0FFFD0B6810B543624B6858
:10545800CC6883628B68C26A23430C69496922F06D
:10546800F70223430B431343C362002010BD30B53A
:10547800402387B01024054603930023019101A916
:1054880004934FF4806302940593FFF731FF41F2D0
:10549800883221462846FFF749FF07B030BD30B5AE
:1054A800402387B01124054603930023019101A9E5
:1054B80004934FF4806302940593FFF719FF41F2B8
:1054C800883221462846FFF731FF07B030BD30B596
:1054D800402387B01224054603930023019101A9B4
:1054E80004934FF4806302940593FFF701FF41F2A0
:1054F800883221462846FFF719FF07B030BD30B57E
:10550800402387B01824054603930023019101A97D
:1055180004934FF4806302940593FFF7E9FE41F288
:10552800883221462846FFF701FF07B030BD30B565
:10553800402387B01924054603930023019101A94C
:1055480004934FF4806302940593FFF7D1FE41F270
:10555800883221462846FFF7E9FE07B030BD000033
:1055680030B5002387B00C244022019305460493EC
:105578004FF4806301A9039205930294FFF7B8FEE4
:10558800034A21462846FFF7D1FE07B030BD00BFC9
:1055980000E1F50530B5402387B00724054603939D
:1055A800002301A9019204934FF4806302940593A8
:1055B800FFF79EFE41F2883221462846FFF7B6FEE5
:1055C80007B030BD10B5002386B00446019301A989
:1055D8000293039304934FF480630593FFF788FEC7
:1055E8000B4B4FF4FA521B68B3FBF2F241F28833CB
:1055F800534313F1FF3308D3626B1206F9D540F217
:10560800FF530020A36306B010BD4FF00040FAE737
:105618006800002010B54FF4D57386B00446019396
:10562800082301A9029340230393002304934FF412
:1056380080630593FFF75CFE114B4FF4FA521B6829
:10564800B3FBF2F241F28833534313F1FF3314D31F
:10565800626B12F0450FF8D0626B12F0040204D0AE
:1056680040230420A36306B010BD606B10F0400017
:10567800F9D040231046A363F5E74FF00040F2E766
:105688006800002030B5402387B0372405460393CF
:105698000023019101A904934FF4806302940593B8
:1056A800FFF726FE41F2883221462846FFF73EFEE4
:1056B80007B030BD10B5292386B041F0004104463B
:1056C8000293402341F4801103930023019101A91F
:1056D80004934FF480630593FFF70AFE2046FFF713
:1056E800B9FD06B010BD30B5002387B03324402281
:1056F8000193054604934FF4806301A9039205932F
:105708000294FFF7F5FD41F2883221462846FFF75B
:105718000DFE07B030BD10B5002386B00222044646
:10572800019301A90292C02204934FF4806303926B
:105738000593FFF7DDFD2046FFF766FD06B010BDB7
:1057480010B5092386B004460293C023019101A92C
:105758000393002304934FF480630593FFF7C8FD78
:105768002046FFF751FD06B010BD000030B50023FC
:1057780087B003220D46019301A9029240220493A7
:105788004FF48063039204460593FFF7B1FD204B65
:105798004FF4FA521B68B3FBF2F241F288335343D9
:1057A80013F1FF332BD3626B12F0450FF8D0636B04
:1057B8005A0703D50420A06307B030BD616B11F010
:1057C800010101D00120F6E72369DBB2032B19D1CF
:1057D80040F2FF532046A363FFF79DFD10F460439A
:1057E80003D1000C28801846E6E743040CD410F4D3
:1057F800004F14BF4FF480504FF48030DCE74FF077
:105808000040D9E70120D7E74FF40050D4E700BFA4
:105818006800002030B5402387B00D240546039367
:105828000023019101A904934FF480630294059326
:10583800FFF75EFD41F2883221462846FFF776FDE4
:1058480007B030BD30B5402387B006240546039322
:105858000023019101A904934FF4806302940593F6
:10586800FFF746FD41F2883221462846FFF75EFDE4
:1058780007B030BDFFF7E6BF08B50649064800F097
:105888004FF9064B06491870064800F049F9064BCF
:10589800187008BD61490620A06A01086049062001
:1058A8005C490620780000206549062007B500936A
:1058B80013460A4601460448FDF7ABFF003018BFFF
:1058C800012003B05DF804FB3445062007B50093BA
:1058D80013460A4601460448FEF778F8003018BF18
:1058E800012003B05DF804FB3445062008B50348E1
:1058F800FEF7A8FB043818BF012008BD3445062070
:1059080001460148FEF708BB34450620704708B534
:10591800FFF7FCFF08BD704708B5FFF7FCFF08BD9F
:10592800704708B5FFF7FCFF08BD012307B58DF8E0
:10593800073000F01FF808B98DF807009DF8070038
:1059480003B05DF804FB000008B5FFF7EEFF01287F
:105958000CD10748FEF7C6FA48B94FF4006104486D
:10596800FEF7ECFA003018BF012008BD022008BD80
:105978003445062008B580210348FCF767FCB0FAD7
:1059880080F0400908BD00BF0008024010B501239F
:10599800054C2370FFF7AAFF234618B9227802F0B6
:1059A800FE022270187810BD7400002010B5012383
:1059B800044C2370FFF7C8FF10B9FFF7E7FF20700A
:1059C800207810BD74000020FFF7E0BF08B5084636
:1059D80011461A464FF0FF33FFF768FF20B9FFF76B
:1059E80085FF0028FBD108BD012008BD124B10B56A
:1059F8001B7888B01446DB071BD4032903D8DFE8DB
:105A080001F010050B12042008B010BD6846FFF71E
:105A180077FF069B236004E06846FFF771FF079B4A
:105A280023800020F0E76846FFF76AFF079B5B0AC0
:105A3800F0E70320E8E700BF7400002008B5084637
:105A480011461A464FF0FF33FFF740FF20B9FFF722
:105A58004DFF0028FBD108BD012008BD024B0122E3
:105A68001A701878704700BF750000200020704732
:105A78000120704700207047024B01221A701878E5
:105A8800704700BF7500002070470000014B186880
:105A9800704700BF388A0620034B1A6810441A68FA
:105AA800821A002AFBDC7047388A0620704709F002
:105AB800D1BB000007B509F095FD0023054A012177
:105AC80001930093034604480AF0DAFA03B05DF83C
